{
  "contractName": "Voting",
  "abi": [
    {
      "inputs": [
        {
          "internalType": "bytes32[]",
          "name": "candidateNames",
          "type": "bytes32[]"
        }
      ],
      "payable": false,
      "stateMutability": "nonpayable",
      "type": "constructor"
    },
    {
      "constant": true,
      "inputs": [
        {
          "internalType": "uint256",
          "name": "",
          "type": "uint256"
        }
      ],
      "name": "candidateList",
      "outputs": [
        {
          "internalType": "bytes32",
          "name": "",
          "type": "bytes32"
        }
      ],
      "payable": false,
      "stateMutability": "view",
      "type": "function"
    },
    {
      "constant": true,
      "inputs": [
        {
          "internalType": "bytes32",
          "name": "",
          "type": "bytes32"
        }
      ],
      "name": "votesReceived",
      "outputs": [
        {
          "internalType": "uint8",
          "name": "",
          "type": "uint8"
        }
      ],
      "payable": false,
      "stateMutability": "view",
      "type": "function"
    },
    {
      "constant": true,
      "inputs": [
        {
          "internalType": "bytes32",
          "name": "candidate",
          "type": "bytes32"
        }
      ],
      "name": "totalVotesFor",
      "outputs": [
        {
          "internalType": "uint8",
          "name": "",
          "type": "uint8"
        }
      ],
      "payable": false,
      "stateMutability": "view",
      "type": "function"
    },
    {
      "constant": false,
      "inputs": [
        {
          "internalType": "bytes32",
          "name": "candidate",
          "type": "bytes32"
        }
      ],
      "name": "voteForCandidate",
      "outputs": [],
      "payable": false,
      "stateMutability": "nonpayable",
      "type": "function"
    }
  ],
  "bytecode": "0x608060405234801561001057600080fd5b506040516103993803806103998339818101604052602081101561003357600080fd5b810190808051604051939291908464010000000082111561005357600080fd5b8382019150602082018581111561006957600080fd5b825186602082028301116401000000008211171561008657600080fd5b8083526020830192505050908051906020019060200280838360005b838110156100bd5780820151818401526020810190506100a2565b5050505090500160405250505080600190805190602001906100e09291906100e7565b5050610159565b828054828255906000526020600020908101928215610123579160200282015b82811115610122578251825591602001919060010190610107565b5b5090506101309190610134565b5090565b61015691905b8082111561015257600081600090555060010161013a565b5090565b90565b610231806101686000396000f3fe608060405234801561001057600080fd5b506004361061004c5760003560e01c80632f265cf7146100515780637021939f14610099578063b13c744b146100e1578063cc9ab26714610123575b600080fd5b61007d6004803603602081101561006757600080fd5b8101908080359060200190929190505050610151565b604051808260ff1660ff16815260200191505060405180910390f35b6100c5600480360360208110156100af57600080fd5b810190808035906020019092919050505061017a565b604051808260ff1660ff16815260200191505060405180910390f35b61010d600480360360208110156100f757600080fd5b810190808035906020019092919050505061019a565b6040518082815260200191505060405180910390f35b61014f6004803603602081101561013957600080fd5b81019080803590602001909291905050506101bb565b005b600080600083815260200190815260200160002060009054906101000a900460ff169050919050565b60006020528060005260406000206000915054906101000a900460ff1681565b600181815481106101a757fe5b906000526020600020016000915090505481565b600160008083815260200190815260200160002060008282829054906101000a900460ff160192506101000a81548160ff021916908360ff1602179055505056fea265627a7a723158209c92a65acb25bb16a4a5a3b3eeb4d086edde3f31ffab59921d029a4d6755fcb264736f6c63430005100032",
  "source": "pragma solidity >=0.4.21 <0.6.0;\n\ncontract Voting{\n  mapping (bytes32=>uint8) public votesReceived;\n  // 候选人列表\n  bytes32[] public candidateList;\n  // 投票的构造函数\n  constructor (bytes32[] memory candidateNames) public {\n    candidateList = candidateNames;\n  }\n  // 查询某候选人的投票数\n  function totalVotesFor(bytes32 candidate) view public returns (uint8) {\n    // require(validCandidate());\n    return votesReceived[candidate];\n  }\n  // 增加候选人票数\n  function voteForCandidate (bytes32 candidate) public {\n    // require(validCandidate());\n    votesReceived[candidate]+=1;\n  }\n  // function validCandidate () pure public returns (bool) {\n  // //   for (uint256 i = 0; i < candidateList.length; i++) {\n  // //     if(candidateList[i] == candidate) {\n  // //       return true;\n  // //     }\n  // //     return false;\n  // //   }\n  //   return true;\n  // }\n}",
  "sourcePath": "/Users/wangwei/solidity/truffle/voting/contracts/Voting.sol",
  "compiler": {
    "name": "solc",
    "version": "0.5.16+commit.9c3226ce.Emscripten.clang"
  },
  "schemaVersion": "3.4.0",
  "updatedAt": "2021-07-13T02:35:01.597Z",
  "networkType": "ethereum",
  "devdoc": {
    "methods": {}
  },
  "userdoc": {
    "methods": {}
  }
}