{
  "contractName": "Words",
  "abi": [
    {
      "constant": false,
      "inputs": [
        {
          "internalType": "string",
          "name": "_s",
          "type": "string"
        },
        {
          "internalType": "uint256",
          "name": "_t",
          "type": "uint256"
        }
      ],
      "name": "save",
      "outputs": [],
      "payable": false,
      "stateMutability": "nonpayable",
      "type": "function"
    },
    {
      "constant": true,
      "inputs": [],
      "name": "getSize",
      "outputs": [
        {
          "internalType": "uint256",
          "name": "",
          "type": "uint256"
        }
      ],
      "payable": false,
      "stateMutability": "view",
      "type": "function"
    },
    {
      "constant": true,
      "inputs": [
        {
          "internalType": "uint256",
          "name": "_random",
          "type": "uint256"
        }
      ],
      "name": "getRandom",
      "outputs": [
        {
          "internalType": "string",
          "name": "",
          "type": "string"
        },
        {
          "internalType": "address",
          "name": "",
          "type": "address"
        },
        {
          "internalType": "uint256",
          "name": "",
          "type": "uint256"
        }
      ],
      "payable": false,
      "stateMutability": "view",
      "type": "function"
    }
  ],
  "bytecode": "0x608060405234801561001057600080fd5b506104f2806100206000396000f3fe608060405234801561001057600080fd5b50600436106100415760003560e01c806307dba6bf14610046578063cd4b69141461010b578063de8fa431146101ec575b600080fd5b6101096004803603604081101561005c57600080fd5b810190808035906020019064010000000081111561007957600080fd5b82018360208201111561008b57600080fd5b803590602001918460018302840111640100000000831117156100ad57600080fd5b91908080601f016020809104026020016040519081016040528093929190818152602001838380828437600081840152601f19601f8201169050808301925050505050505091929192908035906020019092919050505061020a565b005b6101376004803603602081101561012157600080fd5b81019080803590602001909291905050506102dd565b60405180806020018473ffffffffffffffffffffffffffffffffffffffff1673ffffffffffffffffffffffffffffffffffffffff168152602001838152602001828103825285818151815260200191508051906020019080838360005b838110156101af578082015181840152602081019050610194565b50505050905090810190601f1680156101dc5780820380516001836020036101000a031916815260200191505b5094505050505060405180910390f35b6101f461040c565b6040518082815260200191505060405180910390f35b600060405180606001604052808481526020013373ffffffffffffffffffffffffffffffffffffffff16815260200183815250908060018154018082558091505090600182039060005260206000209060030201600090919290919091506000820151816000019080519060200190610284929190610418565b5060208201518160010160006101000a81548173ffffffffffffffffffffffffffffffffffffffff021916908373ffffffffffffffffffffffffffffffffffffffff160217905550604082015181600201555050505050565b606060008060008080549050141561031557336000604051806020016040528060008152509190819150809050925092509250610405565b600080858154811061032357fe5b90600052602060002090600302019050806000018160010160009054906101000a900473ffffffffffffffffffffffffffffffffffffffff168260020154828054600181600116156101000203166002900480601f0160208091040260200160405190810160405280929190818152602001828054600181600116156101000203166002900480156103f65780601f106103cb576101008083540402835291602001916103f6565b820191906000526020600020905b8154815290600101906020018083116103d957829003601f168201915b50505050509250935093509350505b9193909250565b60008080549050905090565b828054600181600116156101000203166002900490600052602060002090601f016020900481019282601f1061045957805160ff1916838001178555610487565b82800160010185558215610487579182015b8281111561048657825182559160200191906001019061046b565b5b5090506104949190610498565b5090565b6104ba91905b808211156104b657600081600090555060010161049e565b5090565b9056fea265627a7a72315820286488ff88372c38ad2e2e2330983dcbbe7417f868a0320c29497faad83be15d64736f6c63430005100032",
  "source": "pragma solidity >=0.4.21 <=0.6.0;\n\ncontract Words{\n  struct Item {\n    string what;\n    address who;\n    uint when;\n  }\n  /// @notice 记录所有誓言数据\n  /// @dev Explain to a developer any extra details\n  /// @return Documents the return variables of a contract’s function state variable\n  Item[] private allWords;\n  /// @notice 保存誓言\n  /// @dev Explain to a developer any extra details\n  /// @return Documents the return variables of a contract’s function state variable\n  function save(string memory _s, uint _t) public {\n    allWords.push(Item({what: _s, who: msg.sender, when: _t}));\n  }\n  /// @notice 查询当前誓言总条数\n  /// @dev Explain to a developer any extra details\n  /// @return Documents the return variables of a contract’s function state variable\n  function getSize() public view returns(uint) {\n    return allWords.length;\n  }\n  /// @notice 根据编号查询具体\n  /// @dev Explain to a developer any extra details\n  /// @return Documents the return variables of a contract’s function state variable\n  function getRandom(uint _random) public view returns(string memory, address, uint) {\n    if (allWords.length == 0) {\n      return('', msg.sender, 0);\n    } else {\n      Item storage result = allWords[_random];\n      return(result.what, result.who, result.when);\n    }\n  }\n}",
  "sourcePath": "/Users/wangwei/solidity/truffle/voting/contracts/Words.sol",
  "compiler": {
    "name": "solc",
    "version": "0.5.16+commit.9c3226ce.Emscripten.clang"
  },
  "schemaVersion": "3.4.0",
  "updatedAt": "2021-07-13T02:35:01.599Z",
  "networkType": "ethereum",
  "devdoc": {
    "methods": {
      "getRandom(uint256)": {
        "details": "Explain to a developer any extra details",
        "return": "Documents the return variables of a contract’s function state variable"
      },
      "getSize()": {
        "details": "Explain to a developer any extra details",
        "return": "Documents the return variables of a contract’s function state variable"
      },
      "save(string,uint256)": {
        "details": "Explain to a developer any extra details",
        "return": "Documents the return variables of a contract’s function state variable"
      }
    }
  },
  "userdoc": {
    "methods": {
      "getRandom(uint256)": {
        "notice": "根据编号查询具体"
      },
      "getSize()": {
        "notice": "查询当前誓言总条数"
      },
      "save(string,uint256)": {
        "notice": "保存誓言"
      }
    }
  }
}