{
  "contractName": "Vote",
  "abi": [
    {
      "inputs": [],
      "payable": false,
      "stateMutability": "nonpayable",
      "type": "constructor"
    },
    {
      "anonymous": false,
      "inputs": [
        {
          "indexed": true,
          "internalType": "uint256",
          "name": "_candidateId",
          "type": "uint256"
        }
      ],
      "name": "voteEvent",
      "type": "event"
    },
    {
      "constant": true,
      "inputs": [
        {
          "internalType": "uint256",
          "name": "",
          "type": "uint256"
        }
      ],
      "name": "candidates",
      "outputs": [
        {
          "internalType": "uint256",
          "name": "id",
          "type": "uint256"
        },
        {
          "internalType": "string",
          "name": "name",
          "type": "string"
        },
        {
          "internalType": "uint256",
          "name": "voteCount",
          "type": "uint256"
        }
      ],
      "payable": false,
      "stateMutability": "view",
      "type": "function"
    },
    {
      "constant": true,
      "inputs": [],
      "name": "candidatesCount",
      "outputs": [
        {
          "internalType": "uint256",
          "name": "",
          "type": "uint256"
        }
      ],
      "payable": false,
      "stateMutability": "view",
      "type": "function"
    },
    {
      "constant": true,
      "inputs": [
        {
          "internalType": "address",
          "name": "",
          "type": "address"
        }
      ],
      "name": "voters",
      "outputs": [
        {
          "internalType": "bool",
          "name": "",
          "type": "bool"
        }
      ],
      "payable": false,
      "stateMutability": "view",
      "type": "function"
    },
    {
      "constant": true,
      "inputs": [],
      "name": "getCandidateCount",
      "outputs": [
        {
          "internalType": "uint256",
          "name": "",
          "type": "uint256"
        }
      ],
      "payable": false,
      "stateMutability": "view",
      "type": "function"
    },
    {
      "constant": false,
      "inputs": [
        {
          "internalType": "uint256",
          "name": "_candidateId",
          "type": "uint256"
        }
      ],
      "name": "vote",
      "outputs": [],
      "payable": false,
      "stateMutability": "nonpayable",
      "type": "function"
    }
  ],
  "bytecode": "0x6080604052600060015534801561001557600080fd5b5061005a6040518060400160405280600481526020017f4e657473000000000000000000000000000000000000000000000000000000008152506100a360201b60201c565b61009e6040518060400160405280600581526020017f4275636b730000000000000000000000000000000000000000000000000000008152506100a360201b60201c565b6101c4565b60016000815480929190600101919050555060405180606001604052806001548152602001828152602001600081525060026000600154815260200190815260200160002060008201518160000155602082015181600101908051906020019061010e92919061011f565b506040820151816002015590505050565b828054600181600116156101000203166002900490600052602060002090601f016020900481019282601f1061016057805160ff191683800117855561018e565b8280016001018555821561018e579182015b8281111561018d578251825591602001919060010190610172565b5b50905061019b919061019f565b5090565b6101c191905b808211156101bd5760008160009055506001016101a5565b5090565b90565b61041c806101d36000396000f3fe608060405234801561001057600080fd5b50600436106100575760003560e01c80630121b93f1461005c5780632d35a8a21461008a57806330a56347146100a85780633477ee2e146100c6578063a3ec138d1461017b575b600080fd5b6100886004803603602081101561007257600080fd5b81019080803590602001909291905050506101d7565b005b6100926102f5565b6040518082815260200191505060405180910390f35b6100b06102fb565b6040518082815260200191505060405180910390f35b6100f2600480360360208110156100dc57600080fd5b8101908080359060200190929190505050610305565b6040518084815260200180602001838152602001828103825284818151815260200191508051906020019080838360005b8381101561013e578082015181840152602081019050610123565b50505050905090810190601f16801561016b5780820380516001836020036101000a031916815260200191505b5094505050505060405180910390f35b6101bd6004803603602081101561019157600080fd5b81019080803573ffffffffffffffffffffffffffffffffffffffff1690602001909291905050506103c7565b604051808215151515815260200191505060405180910390f35b6000803373ffffffffffffffffffffffffffffffffffffffff1673ffffffffffffffffffffffffffffffffffffffff16815260200190815260200160002060009054906101000a900460ff161561022d57600080fd5b60008111801561023f57506001548111155b61024857600080fd5b60016000803373ffffffffffffffffffffffffffffffffffffffff1673ffffffffffffffffffffffffffffffffffffffff16815260200190815260200160002060006101000a81548160ff0219169083151502179055506002600082815260200190815260200160002060020160008154809291906001019190505550807fa247b679b8fc65eb95979774186f3f4068743d7c38c37ca4b1181dcb7ca2507d60405160405180910390a250565b60015481565b6000600154905090565b6002602052806000526040600020600091509050806000015490806001018054600181600116156101000203166002900480601f0160208091040260200160405190810160405280929190818152602001828054600181600116156101000203166002900480156103b75780601f1061038c576101008083540402835291602001916103b7565b820191906000526020600020905b81548152906001019060200180831161039a57829003601f168201915b5050505050908060020154905083565b60006020528060005260406000206000915054906101000a900460ff168156fea265627a7a72315820a75feaace2fa23767804130d556048b7d16a43a9e3159bd1a0fa38d5d76d230f64736f6c63430005100032",
  "source": "pragma solidity ^0.5.0;\n\ncontract Vote {\n  mapping(address => bool) public voters;\n  struct Candidate {\n    uint id;\n    string name;\n    uint voteCount;\n  }\n  event voteEvent(uint indexed _candidateId);\n  uint public candidatesCount = 0;\n  mapping (uint => Candidate) public candidates;\n  function addCandidate(string memory _name) private {\n    candidatesCount++;\n    candidates[candidatesCount] = Candidate(candidatesCount, _name, 0);\n  }\n  constructor () public {\n    addCandidate('Nets');\n    addCandidate('Bucks');\n  }\n  function getCandidateCount() public view returns (uint) {\n    return candidatesCount;\n  }\n  function vote(uint _candidateId) public {\n    require(!voters[msg.sender]);\n    require(_candidateId > 0 && _candidateId <= candidatesCount);\n    voters[msg.sender] = true;\n    candidates[_candidateId].voteCount++;\n    emit voteEvent(_candidateId);\n  }\n}",
  "sourcePath": "/Users/wangwei/solidity/truffle/pet-shop-box-master/contracts/Vote.sol",
  "compiler": {
    "name": "solc",
    "version": "0.5.16+commit.9c3226ce.Emscripten.clang"
  },
  "schemaVersion": "3.4.0",
  "updatedAt": "2021-06-10T02:58:16.090Z",
  "networkType": "ethereum",
  "devdoc": {
    "methods": {}
  },
  "userdoc": {
    "methods": {}
  }
}